{
  "_format": "hh-sol-artifact-1",
  "contractName": "MPForwarder",
  "sourceName": "contracts/MPForwarder.sol",
  "abi": [
    {
      "inputs": [
        {
          "internalType": "address",
          "name": "_destination",
          "type": "address"
        }
      ],
      "stateMutability": "nonpayable",
      "type": "constructor"
    },
    {
      "inputs": [],
      "name": "destination",
      "outputs": [
        {
          "internalType": "address",
          "name": "",
          "type": "address"
        }
      ],
      "stateMutability": "view",
      "type": "function"
    },
    {
      "inputs": [
        {
          "internalType": "address",
          "name": "tokenContractAddress",
          "type": "address"
        }
      ],
      "name": "flushERC20",
      "outputs": [],
      "stateMutability": "nonpayable",
      "type": "function"
    },
    {
      "inputs": [],
      "name": "flushETH",
      "outputs": [],
      "stateMutability": "nonpayable",
      "type": "function"
    },
    {
      "inputs": [
        {
          "internalType": "address",
          "name": "_destination",
          "type": "address"
        }
      ],
      "name": "init",
      "outputs": [],
      "stateMutability": "nonpayable",
      "type": "function"
    },
    {
      "stateMutability": "payable",
      "type": "receive"
    }
  ],
  "bytecode": "0x608060405234801561001057600080fd5b5060405161077e38038061077e833981810160405281019061003291906100db565b806000806101000a81548173ffffffffffffffffffffffffffffffffffffffff021916908373ffffffffffffffffffffffffffffffffffffffff16021790555050610108565b600080fd5b600073ffffffffffffffffffffffffffffffffffffffff82169050919050565b60006100a88261007d565b9050919050565b6100b88161009d565b81146100c357600080fd5b50565b6000815190506100d5816100af565b92915050565b6000602082840312156100f1576100f0610078565b5b60006100ff848285016100c6565b91505092915050565b610667806101176000396000f3fe6080604052600436106100435760003560e01c806319ab453c1461004f578063477523c21461007857806369f8ef0c146100a1578063b269681d146100b85761004a565b3661004a57005b600080fd5b34801561005b57600080fd5b5061007660048036038101906100719190610417565b6100e3565b005b34801561008457600080fd5b5061009f600480360381019061009a9190610417565b61017f565b005b3480156100ad57600080fd5b506100b66102b0565b005b3480156100c457600080fd5b506100cd610390565b6040516100da9190610453565b60405180910390f35b600073ffffffffffffffffffffffffffffffffffffffff1660008054906101000a900473ffffffffffffffffffffffffffffffffffffffff1673ffffffffffffffffffffffffffffffffffffffff161461013c57600080fd5b806000806101000a81548173ffffffffffffffffffffffffffffffffffffffff021916908373ffffffffffffffffffffffffffffffffffffffff16021790555050565b600081905060008173ffffffffffffffffffffffffffffffffffffffff166370a08231306040518263ffffffff1660e01b81526004016101bf9190610453565b602060405180830381865afa1580156101dc573d6000803e3d6000fd5b505050506040513d601f19601f8201168201806040525081019061020091906104a4565b905060008111156102ab578173ffffffffffffffffffffffffffffffffffffffff1663a9059cbb60008054906101000a900473ffffffffffffffffffffffffffffffffffffffff16836040518363ffffffff1660e01b81526004016102669291906104e0565b6020604051808303816000875af1158015610285573d6000803e3d6000fd5b505050506040513d601f19601f820116820180604052508101906102a99190610541565b505b505050565b6000479050600081111561038d5760008060009054906101000a900473ffffffffffffffffffffffffffffffffffffffff1673ffffffffffffffffffffffffffffffffffffffff16826040516103059061059f565b60006040518083038185875af1925050503d8060008114610342576040519150601f19603f3d011682016040523d82523d6000602084013e610347565b606091505b505090508061038b576040517f08c379a000000000000000000000000000000000000000000000000000000000815260040161038290610611565b60405180910390fd5b505b50565b60008054906101000a900473ffffffffffffffffffffffffffffffffffffffff1681565b600080fd5b600073ffffffffffffffffffffffffffffffffffffffff82169050919050565b60006103e4826103b9565b9050919050565b6103f4816103d9565b81146103ff57600080fd5b50565b600081359050610411816103eb565b92915050565b60006020828403121561042d5761042c6103b4565b5b600061043b84828501610402565b91505092915050565b61044d816103d9565b82525050565b60006020820190506104686000830184610444565b92915050565b6000819050919050565b6104818161046e565b811461048c57600080fd5b50565b60008151905061049e81610478565b92915050565b6000602082840312156104ba576104b96103b4565b5b60006104c88482850161048f565b91505092915050565b6104da8161046e565b82525050565b60006040820190506104f56000830185610444565b61050260208301846104d1565b9392505050565b60008115159050919050565b61051e81610509565b811461052957600080fd5b50565b60008151905061053b81610515565b92915050565b600060208284031215610557576105566103b4565b5b60006105658482850161052c565b91505092915050565b600081905092915050565b50565b600061058960008361056e565b915061059482610579565b600082019050919050565b60006105aa8261057c565b9150819050919050565b600082825260208201905092915050565b7f7800000000000000000000000000000000000000000000000000000000000000600082015250565b60006105fb6001836105b4565b9150610606826105c5565b602082019050919050565b6000602082019050818103600083015261062a816105ee565b905091905056fea2646970667358221220c2c6960487d1a4eb4b758424c341e925c641d2afd5aba9cf920cd19ab6d6766564736f6c63430008180033",
  "linkReferences": {},
  "deployedLinkReferences": {}
}